{
  "_format": "hh-sol-artifact-1",
  "contractName": "TensorRoyale",
  "sourceName": "contracts/TensorRoyale.sol",
  "abi": [
    {
      "inputs": [
        {
          "internalType": "uint256",
          "name": "",
          "type": "uint256"
        },
        {
          "internalType": "address",
          "name": "",
          "type": "address"
        }
      ],
      "name": "payments",
      "outputs": [
        {
          "internalType": "uint256",
          "name": "",
          "type": "uint256"
        }
      ],
      "stateMutability": "view",
      "type": "function"
    },
    {
      "inputs": [
        {
          "internalType": "uint256",
          "name": "publicKey",
          "type": "uint256"
        },
        {
          "internalType": "uint256",
          "name": "requestId",
          "type": "uint256"
        },
        {
          "internalType": "uint256",
          "name": "requestCommitment",
          "type": "uint256"
        },
        {
          "internalType": "uint256",
          "name": "usdcPayment",
          "type": "uint256"
        }
      ],
      "name": "registerRequest",
      "outputs": [],
      "stateMutability": "nonpayable",
      "type": "function"
    },
    {
      "inputs": [
        {
          "internalType": "uint256",
          "name": "",
          "type": "uint256"
        }
      ],
      "name": "requestKeys",
      "outputs": [
        {
          "internalType": "uint256",
          "name": "requestId",
          "type": "uint256"
        },
        {
          "internalType": "uint256",
          "name": "publicKey",
          "type": "uint256"
        },
        {
          "internalType": "uint256",
          "name": "requestCommitment",
          "type": "uint256"
        }
      ],
      "stateMutability": "view",
      "type": "function"
    },
    {
      "inputs": [
        {
          "internalType": "address",
          "name": "_usdcAddress",
          "type": "address"
        }
      ],
      "name": "setUsdcAddress",
      "outputs": [],
      "stateMutability": "nonpayable",
      "type": "function"
    },
    {
      "inputs": [
        {
          "internalType": "uint256[]",
          "name": "programOutput",
          "type": "uint256[]"
        }
      ],
      "name": "transitionState",
      "outputs": [],
      "stateMutability": "nonpayable",
      "type": "function"
    }
  ],
  "bytecode": "0x608060405234801561001057600080fd5b50610b54806100206000396000f3fe608060405234801561001057600080fd5b50600436106100575760003560e01c806302dbcc5b1461005c578063244ed4e614610078578063565834ee146100aa578063d38bcdee146100da578063f45b0d7a146100f6575b600080fd5b610076600480360381019061007191906105dd565b610112565b005b610092600480360381019061008d9190610660565b6102e0565b6040516100a19392919061069c565b60405180910390f35b6100c460048036038101906100bf9190610731565b61030a565b6040516100d19190610771565b60405180910390f35b6100f460048036038101906100ef919061078c565b61032f565b005b610110600480360381019061010b91906107b9565b610373565b005b60005b828290508110156102db57600083838381811061013557610134610820565b5b9050602002013590506000848460018561014f919061087e565b81811061015f5761015e610820565b5b90506020020135905060008585600286610179919061087e565b81811061018957610188610820565b5b9050602002013590508260008085815260200190815260200160002060000154146101e9576040517f08c379a00000000000000000000000000000000000000000000000000000000081526004016101e09061090f565b60405180910390fd5b816000808581526020019081526020016000206001015414610240576040517f08c379a00000000000000000000000000000000000000000000000000000000081526004016102379061097b565b60405180910390fd5b806000808581526020019081526020016000206002015414610297576040517f08c379a000000000000000000000000000000000000000000000000000000000815260040161028e906109e7565b60405180910390fd5b6000808481526020019081526020016000206000808201600090556001820160009055600282016000905550505050506003816102d4919061087e565b9050610115565b505050565b60006020528060005260406000206000915090508060000154908060010154908060020154905083565b6001602052816000526040600020602052806000526040600020600091509150505481565b80600260006101000a81548173ffffffffffffffffffffffffffffffffffffffff021916908373ffffffffffffffffffffffffffffffffffffffff16021790555050565b7f080000000000001100000000000000000000000000000000000000000000000184106103d5576040517f08c379a00000000000000000000000000000000000000000000000000000000081526004016103cc90610a53565b60405180910390fd5b60008411610418576040517f08c379a000000000000000000000000000000000000000000000000000000000815260040161040f90610a53565b60405180910390fd5b604051806060016040528084815260200185815260200183815250600080858152602001908152602001600020600082015181600001556020820151816001015560408201518160020155905050600081031561056857600260009054906101000a900473ffffffffffffffffffffffffffffffffffffffff1673ffffffffffffffffffffffffffffffffffffffff166323b872dd3330846040518463ffffffff1660e01b81526004016104ce93929190610a82565b6020604051808303816000875af11580156104ed573d6000803e3d6000fd5b505050506040513d601f19601f820116820180604052508101906105119190610af1565b50806001600085815260200190815260200160002060003373ffffffffffffffffffffffffffffffffffffffff1673ffffffffffffffffffffffffffffffffffffffff168152602001908152602001600020819055505b50505050565b600080fd5b600080fd5b600080fd5b600080fd5b600080fd5b60008083601f84011261059d5761059c610578565b5b8235905067ffffffffffffffff8111156105ba576105b961057d565b5b6020830191508360208202830111156105d6576105d5610582565b5b9250929050565b600080602083850312156105f4576105f361056e565b5b600083013567ffffffffffffffff81111561061257610611610573565b5b61061e85828601610587565b92509250509250929050565b6000819050919050565b61063d8161062a565b811461064857600080fd5b50565b60008135905061065a81610634565b92915050565b6000602082840312156106765761067561056e565b5b60006106848482850161064b565b91505092915050565b6106968161062a565b82525050565b60006060820190506106b1600083018661068d565b6106be602083018561068d565b6106cb604083018461068d565b949350505050565b600073ffffffffffffffffffffffffffffffffffffffff82169050919050565b60006106fe826106d3565b9050919050565b61070e816106f3565b811461071957600080fd5b50565b60008135905061072b81610705565b92915050565b600080604083850312156107485761074761056e565b5b60006107568582860161064b565b92505060206107678582860161071c565b9150509250929050565b6000602082019050610786600083018461068d565b92915050565b6000602082840312156107a2576107a161056e565b5b60006107b08482850161071c565b91505092915050565b600080600080608085870312156107d3576107d261056e565b5b60006107e18782880161064b565b94505060206107f28782880161064b565b93505060406108038782880161064b565b92505060606108148782880161064b565b91505092959194509250565b7f4e487b7100000000000000000000000000000000000000000000000000000000600052603260045260246000fd5b7f4e487b7100000000000000000000000000000000000000000000000000000000600052601160045260246000fd5b60006108898261062a565b91506108948361062a565b92508282019050808211156108ac576108ab61084f565b5b92915050565b600082825260208201905092915050565b7f496e76616c696420726571756573742069640000000000000000000000000000600082015250565b60006108f96012836108b2565b9150610904826108c3565b602082019050919050565b60006020820190508181036000830152610928816108ec565b9050919050565b7f496e76616c6964207075626c6963206b65790000000000000000000000000000600082015250565b60006109656012836108b2565b91506109708261092f565b602082019050919050565b6000602082019050818103600083015261099481610958565b9050919050565b7f496e76616c6964207265717565737420636f6d6d69746d656e74000000000000600082015250565b60006109d1601a836108b2565b91506109dc8261099b565b602082019050919050565b60006020820190508181036000830152610a00816109c4565b9050919050565b7f496e76616c696420737461726b204b6579000000000000000000000000000000600082015250565b6000610a3d6011836108b2565b9150610a4882610a07565b602082019050919050565b60006020820190508181036000830152610a6c81610a30565b9050919050565b610a7c816106f3565b82525050565b6000606082019050610a976000830186610a73565b610aa46020830185610a73565b610ab1604083018461068d565b949350505050565b60008115159050919050565b610ace81610ab9565b8114610ad957600080fd5b50565b600081519050610aeb81610ac5565b92915050565b600060208284031215610b0757610b0661056e565b5b6000610b1584828501610adc565b9150509291505056fea26469706673582212201c596fd1c32e1f2bc17bee8f0d9c78b35312662c2503869b46513526b15ecb1064736f6c63430008180033",
  "linkReferences": {},
  "deployedLinkReferences": {}
}